:0E0000000C9431000C945E000C9483000C9460
:10000E0000000C9400000C9400000C9400000C9462
:10001E0000000C9400000C9400000C9400000C9452
:10002E00AC000C9400000C9400000C9400000C9496
:10003E0000000C9400000C9400000C9400000C9432
:10004E0000000C94000001000200000006000400F5
:10005E0054000000F894EE27ECBBF1E0FBBFEBBFC1
:10006E00E5BF8DE0A2E0BB27ED938A95E9F780E02E
:10007E0098E0A0E6ED930197E9F7EAE5F0E08591C7
:10008E009591009761F0A591B59105901590BF01DE
:10009E00F00105900D920197E1F7FB01F0CFEFE52E
:1000AE00EDBFE8E0EEBFC0E6D2E00C94DA00EA93D2
:1000BE00FA93EFB7EA9381990EC0E2E0F0E04E16A4
:1000CE005F0628F0E5E0F0E0E415F50508F403C05E
:1000DE00F20131972F01819B0EC0E4E0F0E06E1625
:1000EE007F0628F0EAE0F0E0E615F70508F403C015
:1000FE00F30132973F0124C0EA93FA93EFB7EA93E4
:10010E0081990EC0E1E0F0E04E165F0628F0E4E0C3
:10011E00F0E0E415F50508F403C0F20131962F0165
:10012E00819B0EC0E2E0F0E06E167F0628F0E8E05C
:10013E00F0E0E615F70508F403C0F30132963F012F
:10014E00E991EFBFF991E99118950A921A929A9353
:10015E00AA93BA93EA93FA93EFB7EA93EEE9E2BF62
:10016E00F40131964F01F301D4010E94240130971E
:10017E0029F4D99B02C0D99801C0D99AF201D401B1
:10018E000E942401309729F4D89B02C0D89801C050
:10019E00D89AE991EFBFF991E991B991A991999105
:1001AE00199009901895E3E0EABBE0E0EBBBE4E0C0
:1001BE00E7BBE0E0E8BBE4BBE5BBE1BBE2BBE5E0EF
:1001CE00E3BFEEE9E2BFE0E0ECBFEFBDEEBDEDBD9B
:1001DE00ECBDE7BDE6BDEBBDEABDE9BDE8BDE2BDE8
:1001EE00E5BDE4BDE3BDE1E0E9BFEBB7E06CEBBF1D
:1001FE00EAE0E5BFE0E0E4BFE0ECEABFE0E0EAB948
:10020E00E0E8E8B9E0E0E0BFE6B9EDB9E6BF789422
:10021E00FFCFFFCF0024112490E1AA0FBB1F001CBB
:10022E00111C0E1A1F0A18F40E0E1F1E01C0A1601B
:10023E009A9599F7FD01D0010895ECDFFD0108951F
:00000001FF
